{
  "contractName": "AssetToken",
  "abi": [
    {
      "inputs": [],
      "stateMutability": "nonpayable",
      "type": "constructor"
    },
    {
      "anonymous": false,
      "inputs": [
        {
          "indexed": true,
          "internalType": "address",
          "name": "owner",
          "type": "address"
        },
        {
          "indexed": true,
          "internalType": "address",
          "name": "approved",
          "type": "address"
        },
        {
          "indexed": true,
          "internalType": "uint256",
          "name": "tokenId",
          "type": "uint256"
        }
      ],
      "name": "Approval",
      "type": "event"
    },
    {
      "anonymous": false,
      "inputs": [
        {
          "indexed": true,
          "internalType": "address",
          "name": "owner",
          "type": "address"
        },
        {
          "indexed": true,
          "internalType": "address",
          "name": "operator",
          "type": "address"
        },
        {
          "indexed": false,
          "internalType": "bool",
          "name": "approved",
          "type": "bool"
        }
      ],
      "name": "ApprovalForAll",
      "type": "event"
    },
    {
      "anonymous": false,
      "inputs": [
        {
          "indexed": false,
          "internalType": "uint256",
          "name": "tokenId",
          "type": "uint256"
        }
      ],
      "name": "AssetRegistered",
      "type": "event"
    },
    {
      "anonymous": false,
      "inputs": [
        {
          "indexed": true,
          "internalType": "address",
          "name": "previousOwner",
          "type": "address"
        },
        {
          "indexed": true,
          "internalType": "address",
          "name": "newOwner",
          "type": "address"
        }
      ],
      "name": "OwnershipTransferred",
      "type": "event"
    },
    {
      "anonymous": false,
      "inputs": [
        {
          "indexed": true,
          "internalType": "address",
          "name": "from",
          "type": "address"
        },
        {
          "indexed": true,
          "internalType": "address",
          "name": "to",
          "type": "address"
        },
        {
          "indexed": true,
          "internalType": "uint256",
          "name": "tokenId",
          "type": "uint256"
        }
      ],
      "name": "Transfer",
      "type": "event"
    },
    {
      "inputs": [
        {
          "internalType": "address",
          "name": "to",
          "type": "address"
        },
        {
          "internalType": "uint256",
          "name": "tokenId",
          "type": "uint256"
        }
      ],
      "name": "approve",
      "outputs": [],
      "stateMutability": "nonpayable",
      "type": "function"
    },
    {
      "inputs": [
        {
          "internalType": "address",
          "name": "owner",
          "type": "address"
        }
      ],
      "name": "balanceOf",
      "outputs": [
        {
          "internalType": "uint256",
          "name": "",
          "type": "uint256"
        }
      ],
      "stateMutability": "view",
      "type": "function",
      "constant": true
    },
    {
      "inputs": [
        {
          "internalType": "uint256",
          "name": "tokenId",
          "type": "uint256"
        }
      ],
      "name": "getApproved",
      "outputs": [
        {
          "internalType": "address",
          "name": "",
          "type": "address"
        }
      ],
      "stateMutability": "view",
      "type": "function",
      "constant": true
    },
    {
      "inputs": [
        {
          "internalType": "address",
          "name": "owner",
          "type": "address"
        },
        {
          "internalType": "address",
          "name": "operator",
          "type": "address"
        }
      ],
      "name": "isApprovedForAll",
      "outputs": [
        {
          "internalType": "bool",
          "name": "",
          "type": "bool"
        }
      ],
      "stateMutability": "view",
      "type": "function",
      "constant": true
    },
    {
      "inputs": [],
      "name": "name",
      "outputs": [
        {
          "internalType": "string",
          "name": "",
          "type": "string"
        }
      ],
      "stateMutability": "view",
      "type": "function",
      "constant": true
    },
    {
      "inputs": [],
      "name": "owner",
      "outputs": [
        {
          "internalType": "address",
          "name": "",
          "type": "address"
        }
      ],
      "stateMutability": "view",
      "type": "function",
      "constant": true
    },
    {
      "inputs": [
        {
          "internalType": "uint256",
          "name": "tokenId",
          "type": "uint256"
        }
      ],
      "name": "ownerOf",
      "outputs": [
        {
          "internalType": "address",
          "name": "",
          "type": "address"
        }
      ],
      "stateMutability": "view",
      "type": "function",
      "constant": true
    },
    {
      "inputs": [
        {
          "internalType": "uint256",
          "name": "",
          "type": "uint256"
        }
      ],
      "name": "registeredAssets",
      "outputs": [
        {
          "internalType": "uint256",
          "name": "",
          "type": "uint256"
        }
      ],
      "stateMutability": "view",
      "type": "function",
      "constant": true
    },
    {
      "inputs": [],
      "name": "renounceOwnership",
      "outputs": [],
      "stateMutability": "nonpayable",
      "type": "function"
    },
    {
      "inputs": [
        {
          "internalType": "address",
          "name": "from",
          "type": "address"
        },
        {
          "internalType": "address",
          "name": "to",
          "type": "address"
        },
        {
          "internalType": "uint256",
          "name": "tokenId",
          "type": "uint256"
        }
      ],
      "name": "safeTransferFrom",
      "outputs": [],
      "stateMutability": "nonpayable",
      "type": "function"
    },
    {
      "inputs": [
        {
          "internalType": "address",
          "name": "from",
          "type": "address"
        },
        {
          "internalType": "address",
          "name": "to",
          "type": "address"
        },
        {
          "internalType": "uint256",
          "name": "tokenId",
          "type": "uint256"
        },
        {
          "internalType": "bytes",
          "name": "data",
          "type": "bytes"
        }
      ],
      "name": "safeTransferFrom",
      "outputs": [],
      "stateMutability": "nonpayable",
      "type": "function"
    },
    {
      "inputs": [
        {
          "internalType": "address",
          "name": "operator",
          "type": "address"
        },
        {
          "internalType": "bool",
          "name": "approved",
          "type": "bool"
        }
      ],
      "name": "setApprovalForAll",
      "outputs": [],
      "stateMutability": "nonpayable",
      "type": "function"
    },
    {
      "inputs": [
        {
          "internalType": "bytes4",
          "name": "interfaceId",
          "type": "bytes4"
        }
      ],
      "name": "supportsInterface",
      "outputs": [
        {
          "internalType": "bool",
          "name": "",
          "type": "bool"
        }
      ],
      "stateMutability": "view",
      "type": "function",
      "constant": true
    },
    {
      "inputs": [],
      "name": "symbol",
      "outputs": [
        {
          "internalType": "string",
          "name": "",
          "type": "string"
        }
      ],
      "stateMutability": "view",
      "type": "function",
      "constant": true
    },
    {
      "inputs": [
        {
          "internalType": "uint256",
          "name": "index",
          "type": "uint256"
        }
      ],
      "name": "tokenByIndex",
      "outputs": [
        {
          "internalType": "uint256",
          "name": "",
          "type": "uint256"
        }
      ],
      "stateMutability": "view",
      "type": "function",
      "constant": true
    },
    {
      "inputs": [
        {
          "internalType": "address",
          "name": "owner",
          "type": "address"
        },
        {
          "internalType": "uint256",
          "name": "index",
          "type": "uint256"
        }
      ],
      "name": "tokenOfOwnerByIndex",
      "outputs": [
        {
          "internalType": "uint256",
          "name": "",
          "type": "uint256"
        }
      ],
      "stateMutability": "view",
      "type": "function",
      "constant": true
    },
    {
      "inputs": [
        {
          "internalType": "uint256",
          "name": "tokenId",
          "type": "uint256"
        }
      ],
      "name": "tokenURI",
      "outputs": [
        {
          "internalType": "string",
          "name": "",
          "type": "string"
        }
      ],
      "stateMutability": "view",
      "type": "function",
      "constant": true
    },
    {
      "inputs": [],
      "name": "totalSupply",
      "outputs": [
        {
          "internalType": "uint256",
          "name": "",
          "type": "uint256"
        }
      ],
      "stateMutability": "view",
      "type": "function",
      "constant": true
    },
    {
      "inputs": [
        {
          "internalType": "address",
          "name": "from",
          "type": "address"
        },
        {
          "internalType": "address",
          "name": "to",
          "type": "address"
        },
        {
          "internalType": "uint256",
          "name": "tokenId",
          "type": "uint256"
        }
      ],
      "name": "transferFrom",
      "outputs": [],
      "stateMutability": "nonpayable",
      "type": "function"
    },
    {
      "inputs": [
        {
          "internalType": "address",
          "name": "newOwner",
          "type": "address"
        }
      ],
      "name": "transferOwnership",
      "outputs": [],
      "stateMutability": "nonpayable",
      "type": "function"
    },
    {
      "stateMutability": "payable",
      "type": "receive",
      "payable": true
    },
    {
      "inputs": [
        {
          "internalType": "uint256",
          "name": "assetID",
          "type": "uint256"
        },
        {
          "internalType": "uint256",
          "name": "salePrice",
          "type": "uint256"
        },
        {
          "internalType": "string",
          "name": "_uri",
          "type": "string"
        }
      ],
      "name": "registerAsset",
      "outputs": [
        {
          "internalType": "uint256",
          "name": "newTokenID",
          "type": "uint256"
        }
      ],
      "stateMutability": "nonpayable",
      "type": "function"
    },
    {
      "inputs": [],
      "name": "getAllRegisteredAsset",
      "outputs": [
        {
          "internalType": "uint256[]",
          "name": "r",
          "type": "uint256[]"
        }
      ],
      "stateMutability": "view",
      "type": "function",
      "constant": true
    },
    {
      "inputs": [
        {
          "internalType": "uint256",
          "name": "assetID",
          "type": "uint256"
        }
      ],
      "name": "getAssetByID",
      "outputs": [
        {
          "internalType": "uint256",
          "name": "",
          "type": "uint256"
        },
        {
          "internalType": "bool",
          "name": "",
          "type": "bool"
        },
        {
          "internalType": "uint256",
          "name": "",
          "type": "uint256"
        },
        {
          "internalType": "address",
          "name": "",
          "type": "address"
        }
      ],
      "stateMutability": "view",
      "type": "function",
      "constant": true
    },
    {
      "inputs": [],
      "name": "getAssetOnSaleCount",
      "outputs": [
        {
          "internalType": "uint256",
          "name": "",
          "type": "uint256"
        }
      ],
      "stateMutability": "view",
      "type": "function",
      "constant": true
    },
    {
      "inputs": [
        {
          "internalType": "address",
          "name": "tokenOwnerAddress",
          "type": "address"
        }
      ],
      "name": "getAssetsOwnedByAccount",
      "outputs": [
        {
          "internalType": "uint256[]",
          "name": "",
          "type": "uint256[]"
        }
      ],
      "stateMutability": "view",
      "type": "function",
      "constant": true
    },
    {
      "inputs": [],
      "name": "getAllAssetOnSale",
      "outputs": [
        {
          "internalType": "uint256[]",
          "name": "",
          "type": "uint256[]"
        },
        {
          "internalType": "uint256[]",
          "name": "",
          "type": "uint256[]"
        },
        {
          "internalType": "address[]",
          "name": "",
          "type": "address[]"
        }
      ],
      "stateMutability": "view",
      "type": "function",
      "constant": true
    },
    {
      "inputs": [
        {
          "internalType": "address",
          "name": "escrowAccount",
          "type": "address"
        }
      ],
      "name": "getAccountEscrowMoney",
      "outputs": [
        {
          "internalType": "uint256",
          "name": "moneyInEscrow",
          "type": "uint256"
        }
      ],
      "stateMutability": "view",
      "type": "function",
      "constant": true
    },
    {
      "inputs": [
        {
          "internalType": "uint256",
          "name": "salePrice",
          "type": "uint256"
        },
        {
          "internalType": "uint256",
          "name": "assetID",
          "type": "uint256"
        }
      ],
      "name": "putAssetOnMarket",
      "outputs": [],
      "stateMutability": "nonpayable",
      "type": "function"
    },
    {
      "inputs": [
        {
          "internalType": "address",
          "name": "_to",
          "type": "address"
        },
        {
          "internalType": "uint256",
          "name": "assetID",
          "type": "uint256"
        },
        {
          "internalType": "bool",
          "name": "withEscrow",
          "type": "bool"
        }
      ],
      "name": "transferAsset",
      "outputs": [],
      "stateMutability": "nonpayable",
      "type": "function"
    }
  ],
  "bytecode": "0x60806040523480156200001157600080fd5b506040518060400160405280600a81526020017f5368617265546f57696e000000000000000000000000000000000000000000008152506040518060400160405280600381526020017f535457000000000000000000000000000000000000000000000000000000000081525081600090816200008f919062000412565b508060019081620000a1919062000412565b505050620000c4620000b8620000ca60201b60201c565b620000d260201b60201c565b620004f9565b600033905090565b6000600a60009054906101000a900473ffffffffffffffffffffffffffffffffffffffff16905081600a60006101000a81548173ffffffffffffffffffffffffffffffffffffffff021916908373ffffffffffffffffffffffffffffffffffffffff1602179055508173ffffffffffffffffffffffffffffffffffffffff168173ffffffffffffffffffffffffffffffffffffffff167f8be0079c531659141344cd1fd0a4f28419497f9722a3daafe3b4186f6b6457e060405160405180910390a35050565b600081519050919050565b7f4e487b7100000000000000000000000000000000000000000000000000000000600052604160045260246000fd5b7f4e487b7100000000000000000000000000000000000000000000000000000000600052602260045260246000fd5b600060028204905060018216806200021a57607f821691505b60208210810362000230576200022f620001d2565b5b50919050565b60008190508160005260206000209050919050565b60006020601f8301049050919050565b600082821b905092915050565b6000600883026200029a7fffffffffffffffffffffffffffffffffffffffffffffffffffffffffffffffff826200025b565b620002a686836200025b565b95508019841693508086168417925050509392505050565b6000819050919050565b6000819050919050565b6000620002f3620002ed620002e784620002be565b620002c8565b620002be565b9050919050565b6000819050919050565b6200030f83620002d2565b620003276200031e82620002fa565b84845462000268565b825550505050565b600090565b6200033e6200032f565b6200034b81848462000304565b505050565b5b8181101562000373576200036760008262000334565b60018101905062000351565b5050565b601f821115620003c2576200038c8162000236565b62000397846200024b565b81016020851015620003a7578190505b620003bf620003b6856200024b565b83018262000350565b50505b505050565b600082821c905092915050565b6000620003e760001984600802620003c7565b1980831691505092915050565b6000620004028383620003d4565b9150826002028217905092915050565b6200041d8262000198565b67ffffffffffffffff811115620004395762000438620001a3565b5b62000445825462000201565b6200045282828562000377565b600060209050601f8311600181146200048a576000841562000475578287015190505b620004818582620003f4565b865550620004f1565b601f1984166200049a8662000236565b60005b82811015620004c4578489015182556001820191506020850194506020810190506200049d565b86831015620004e45784890151620004e0601f891682620003d4565b8355505b6001600288020188555050505b505050505050565b61471480620005096000396000f3fe6080604052600436106101c65760003560e01c806370a08231116100f7578063a22cb46511610095578063d673383811610064578063d673383814610759578063e985e9c514610784578063f2fde38b146107c1578063fbd5a331146107ea57610266565b8063a22cb465146106a1578063b88d4fde146106ca578063c87b56dd146106f3578063cf80a3e91461073057610266565b80637cda9c9a116100d15780637cda9c9a146105e15780638da5cb5b1461060e57806395d89b4114610639578063a083bd3c1461066457610266565b806370a082311461054d578063715018a61461058a5780637bb39bad146105a157610266565b80632d2fd0831161016457806342842e0e1161013e57806342842e0e1461046d5780634f6ccce714610496578063552f5e12146104d35780636352211e1461051057610266565b80632d2fd083146103b65780632f745c59146103f35780633844d2801461043057610266565b8063095ea7b3116101a0578063095ea7b314610310578063169c68d91461033957806318160ddd1461036257806323b872dd1461038d57610266565b806301ffc9a71461026b57806306fdde03146102a8578063081812fc146102d357610266565b3661026657600034905061022281600d60003373ffffffffffffffffffffffffffffffffffffffff1673ffffffffffffffffffffffffffffffffffffffff1681526020019081526020016000205461081590919063ffffffff16565b600d60003373ffffffffffffffffffffffffffffffffffffffff1673ffffffffffffffffffffffffffffffffffffffff168152602001908152602001600020819055005b600080fd5b34801561027757600080fd5b50610292600480360381019061028d9190612e1e565b61082b565b60405161029f9190612e66565b60405180910390f35b3480156102b457600080fd5b506102bd6108a5565b6040516102ca9190612f11565b60405180910390f35b3480156102df57600080fd5b506102fa60048036038101906102f59190612f69565b610937565b6040516103079190612fd7565b60405180910390f35b34801561031c57600080fd5b506103376004803603810190610332919061301e565b61097d565b005b34801561034557600080fd5b50610360600480360381019061035b919061308a565b610a94565b005b34801561036e57600080fd5b50610377610d7b565b60405161038491906130ec565b60405180910390f35b34801561039957600080fd5b506103b460048036038101906103af9190613107565b610d88565b005b3480156103c257600080fd5b506103dd60048036038101906103d891906131bf565b610de8565b6040516103ea91906130ec565b60405180910390f35b3480156103ff57600080fd5b5061041a6004803603810190610415919061301e565b610f15565b60405161042791906130ec565b60405180910390f35b34801561043c57600080fd5b5061045760048036038101906104529190613233565b610fba565b60405161046491906130ec565b60405180910390f35b34801561047957600080fd5b50610494600480360381019061048f9190613107565b611016565b005b3480156104a257600080fd5b506104bd60048036038101906104b89190612f69565b611036565b6040516104ca91906130ec565b60405180910390f35b3480156104df57600080fd5b506104fa60048036038101906104f59190613233565b6110a7565b604051610507919061331e565b60405180910390f35b34801561051c57600080fd5b5061053760048036038101906105329190612f69565b61116e565b6040516105449190612fd7565b60405180910390f35b34801561055957600080fd5b50610574600480360381019061056f9190613233565b61121f565b60405161058191906130ec565b60405180910390f35b34801561059657600080fd5b5061059f6112d6565b005b3480156105ad57600080fd5b506105c860048036038101906105c39190612f69565b6112ea565b6040516105d89493929190613340565b60405180910390f35b3480156105ed57600080fd5b506105f6611370565b60405161060593929190613443565b60405180910390f35b34801561061a57600080fd5b50610623611689565b6040516106309190612fd7565b60405180910390f35b34801561064557600080fd5b5061064e6116b3565b60405161065b9190612f11565b60405180910390f35b34801561067057600080fd5b5061068b60048036038101906106869190612f69565b611745565b60405161069891906130ec565b60405180910390f35b3480156106ad57600080fd5b506106c860048036038101906106c3919061348f565b611769565b005b3480156106d657600080fd5b506106f160048036038101906106ec91906135ff565b61177f565b005b3480156106ff57600080fd5b5061071a60048036038101906107159190612f69565b6117e1565b6040516107279190612f11565b60405180910390f35b34801561073c57600080fd5b5061075760048036038101906107529190613682565b611849565b005b34801561076557600080fd5b5061076e611897565b60405161077b919061331e565b60405180910390f35b34801561079057600080fd5b506107ab60048036038101906107a691906136c2565b6118ef565b6040516107b89190612e66565b60405180910390f35b3480156107cd57600080fd5b506107e860048036038101906107e39190613233565b611983565b005b3480156107f657600080fd5b506107ff611a06565b60405161080c91906130ec565b60405180910390f35b600081836108239190613731565b905092915050565b60007f780e9d63000000000000000000000000000000000000000000000000000000007bffffffffffffffffffffffffffffffffffffffffffffffffffffffff1916827bffffffffffffffffffffffffffffffffffffffffffffffffffffffff1916148061089e575061089d82611a90565b5b9050919050565b6060600080546108b490613794565b80601f01602080910402602001604051908101604052809291908181526020018280546108e090613794565b801561092d5780601f106109025761010080835404028352916020019161092d565b820191906000526020600020905b81548152906001019060200180831161091057829003601f168201915b5050505050905090565b600061094282611b72565b6004600083815260200190815260200160002060009054906101000a900473ffffffffffffffffffffffffffffffffffffffff169050919050565b60006109888261116e565b90508073ffffffffffffffffffffffffffffffffffffffff168373ffffffffffffffffffffffffffffffffffffffff16036109f8576040517f08c379a00000000000000000000000000000000000000000000000000000000081526004016109ef90613837565b60405180910390fd5b8073ffffffffffffffffffffffffffffffffffffffff16610a17611bbd565b73ffffffffffffffffffffffffffffffffffffffff161480610a465750610a4581610a40611bbd565b6118ef565b5b610a85576040517f08c379a0000000000000000000000000000000000000000000000000000000008152600401610a7c906138c9565b60405180910390fd5b610a8f8383611bc5565b505050565b6000600e60008481526020019081526020016000206002015490506000600e60008581526020019081526020016000206000015490506000610ad58361116e565b90508073ffffffffffffffffffffffffffffffffffffffff168673ffffffffffffffffffffffffffffffffffffffff1603610b45576040517f08c379a0000000000000000000000000000000000000000000000000000000008152600401610b3c90613935565b60405180910390fd5b600d60008773ffffffffffffffffffffffffffffffffffffffff1673ffffffffffffffffffffffffffffffffffffffff16815260200190815260200160002054821115610bc7576040517f08c379a0000000000000000000000000000000000000000000000000000000008152600401610bbe906139c7565b60405180910390fd5b60011515600e600087815260200190815260200160002060010160009054906101000a900460ff16151514610c31576040517f08c379a0000000000000000000000000000000000000000000000000000000008152600401610c2890613a59565b60405180910390fd5b610c3c818785611016565b6001151584151503610d44578073ffffffffffffffffffffffffffffffffffffffff166108fc670de0b6b3a764000084610c769190613a79565b9081150290604051600060405180830381858888f19350505050158015610ca1573d6000803e3d6000fd5b50670de0b6b3a764000082610cb69190613a79565b600d60008873ffffffffffffffffffffffffffffffffffffffff1673ffffffffffffffffffffffffffffffffffffffff16815260200190815260200160002054610d009190613abb565b600d60008873ffffffffffffffffffffffffffffffffffffffff1673ffffffffffffffffffffffffffffffffffffffff168152602001908152602001600020819055505b6000600e600087815260200190815260200160002060010160006101000a81548160ff021916908315150217905550505050505050565b6000600880549050905090565b610d99610d93611bbd565b82611c7e565b610dd8576040517f08c379a0000000000000000000000000000000000000000000000000000000008152600401610dcf90613b61565b60405180910390fd5b610de3838383611d13565b505050565b6000610df4600c611f79565b610dfe600c611f8f565b9050610e0a3382611f9d565b8282600b9182610e1b929190613d38565b50610e24612d8f565b8481600001818152505060018160200190151590811515815250508181604001818152505080600e60008881526020019081526020016000206000820151816000015560208201518160010160006101000a81548160ff02191690831515021790555060408201518160020155905050600f8690806001815401808255809150506001900390600052602060002001600090919091909150558560106000848152602001908152602001600020819055507fcc7b4929606ce963ba54b6a998f106f7748e78c03dc7f08fd77aeb28230eb2d382604051610f0491906130ec565b60405180910390a150949350505050565b6000610f208361121f565b8210610f61576040517f08c379a0000000000000000000000000000000000000000000000000000000008152600401610f5890613e7a565b60405180910390fd5b600660008473ffffffffffffffffffffffffffffffffffffffff1673ffffffffffffffffffffffffffffffffffffffff168152602001908152602001600020600083815260200190815260200160002054905092915050565b6000670de0b6b3a7640000600d60008473ffffffffffffffffffffffffffffffffffffffff1673ffffffffffffffffffffffffffffffffffffffff1681526020019081526020016000205461100f9190613ec9565b9050919050565b6110318383836040518060200160405280600081525061177f565b505050565b6000611040610d7b565b8210611081576040517f08c379a000000000000000000000000000000000000000000000000000000000815260040161107890613f6c565b60405180910390fd5b6008828154811061109557611094613f8c565b5b90600052602060002001549050919050565b606060006110b48361121f565b905060008167ffffffffffffffff8111156110d2576110d16134d4565b5b6040519080825280602002602001820160405280156111005781602001602082028036833780820191505090505b50905060005b8281101561116357600061111a8683610f15565b9050601060008281526020019081526020016000205483838151811061114357611142613f8c565b5b60200260200101818152505050808061115b90613fbb565b915050611106565b508092505050919050565b6000806002600084815260200190815260200160002060009054906101000a900473ffffffffffffffffffffffffffffffffffffffff169050600073ffffffffffffffffffffffffffffffffffffffff168173ffffffffffffffffffffffffffffffffffffffff1603611216576040517f08c379a000000000000000000000000000000000000000000000000000000000815260040161120d9061404f565b60405180910390fd5b80915050919050565b60008073ffffffffffffffffffffffffffffffffffffffff168273ffffffffffffffffffffffffffffffffffffffff160361128f576040517f08c379a0000000000000000000000000000000000000000000000000000000008152600401611286906140e1565b60405180910390fd5b600360008373ffffffffffffffffffffffffffffffffffffffff1673ffffffffffffffffffffffffffffffffffffffff168152602001908152602001600020549050919050565b6112de611fbb565b6112e86000612039565b565b600080600080600e600086815260200190815260200160002060000154600e600087815260200190815260200160002060010160009054906101000a900460ff16600e600088815260200190815260200160002060020154611361600e60008a81526020019081526020016000206002015461116e565b93509350935093509193509193565b6060806060600061137f611a06565b905060008167ffffffffffffffff81111561139d5761139c6134d4565b5b6040519080825280602002602001820160405280156113cb5781602001602082028036833780820191505090505b50905060008267ffffffffffffffff8111156113ea576113e96134d4565b5b6040519080825280602002602001820160405280156114185781602001602082028036833780820191505090505b50905060008367ffffffffffffffff811115611437576114366134d4565b5b6040519080825280602002602001820160405280156114655781602001602082028036833780820191505090505b5090506000805b600f805490508110156116755760011515600e6000600f848154811061149557611494613f8c565b5b9060005260206000200154815260200190815260200160002060010160009054906101000a900460ff1615150361166257600f81815481106114da576114d9613f8c565b5b90600052602060002001548583815181106114f8576114f7613f8c565b5b602002602001018181525050600e6000600f838154811061151c5761151b613f8c565b5b906000526020600020015481526020019081526020016000206000015484838151811061154c5761154b613f8c565b5b6020026020010181815250503073ffffffffffffffffffffffffffffffffffffffff16636352211e600e6000600f858154811061158c5761158b613f8c565b5b90600052602060002001548152602001908152602001600020600201546040518263ffffffff1660e01b81526004016115c591906130ec565b602060405180830381865afa1580156115e2573d6000803e3d6000fd5b505050506040513d601f19601f820116820180604052508101906116069190614116565b83838151811061161957611618613f8c565b5b602002602001019073ffffffffffffffffffffffffffffffffffffffff16908173ffffffffffffffffffffffffffffffffffffffff1681525050818061165e90613fbb565b9250505b808061166d90613fbb565b91505061146c565b508383839750975097505050505050909192565b6000600a60009054906101000a900473ffffffffffffffffffffffffffffffffffffffff16905090565b6060600180546116c290613794565b80601f01602080910402602001604051908101604052809291908181526020018280546116ee90613794565b801561173b5780601f106117105761010080835404028352916020019161173b565b820191906000526020600020905b81548152906001019060200180831161171e57829003601f168201915b5050505050905090565b600f818154811061175557600080fd5b906000526020600020016000915090505481565b61177b611774611bbd565b83836120ff565b5050565b61179061178a611bbd565b83611c7e565b6117cf576040517f08c379a00000000000000000000000000000000000000000000000000000000081526004016117c690613b61565b60405180910390fd5b6117db8484848461226b565b50505050565b60606117ec82611b72565b60006117f66122c7565b905060008151116118165760405180602001604052806000815250611841565b8061182084612359565b60405160200161183192919061417f565b6040516020818303038152906040525b915050919050565b81600e6000838152602001908152602001600020600001819055506001600e600083815260200190815260200160002060010160006101000a81548160ff0219169083151502179055505050565b6060600f8054806020026020016040519081016040528092919081815260200182805480156118e557602002820191906000526020600020905b8154815260200190600101908083116118d1575b5050505050905090565b6000600560008473ffffffffffffffffffffffffffffffffffffffff1673ffffffffffffffffffffffffffffffffffffffff16815260200190815260200160002060008373ffffffffffffffffffffffffffffffffffffffff1673ffffffffffffffffffffffffffffffffffffffff16815260200190815260200160002060009054906101000a900460ff16905092915050565b61198b611fbb565b600073ffffffffffffffffffffffffffffffffffffffff168173ffffffffffffffffffffffffffffffffffffffff16036119fa576040517f08c379a00000000000000000000000000000000000000000000000000000000081526004016119f190614215565b60405180910390fd5b611a0381612039565b50565b60008060005b600f80549050811015611a885760011515600e6000600f8481548110611a3557611a34613f8c565b5b9060005260206000200154815260200190815260200160002060010160009054906101000a900460ff16151503611a75578180611a7190613fbb565b9250505b8080611a8090613fbb565b915050611a0c565b508091505090565b60007f80ac58cd000000000000000000000000000000000000000000000000000000007bffffffffffffffffffffffffffffffffffffffffffffffffffffffff1916827bffffffffffffffffffffffffffffffffffffffffffffffffffffffff19161480611b5b57507f5b5e139f000000000000000000000000000000000000000000000000000000007bffffffffffffffffffffffffffffffffffffffffffffffffffffffff1916827bffffffffffffffffffffffffffffffffffffffffffffffffffffffff1916145b80611b6b5750611b6a826124b9565b5b9050919050565b611b7b81612523565b611bba576040517f08c379a0000000000000000000000000000000000000000000000000000000008152600401611bb19061404f565b60405180910390fd5b50565b600033905090565b816004600083815260200190815260200160002060006101000a81548173ffffffffffffffffffffffffffffffffffffffff021916908373ffffffffffffffffffffffffffffffffffffffff160217905550808273ffffffffffffffffffffffffffffffffffffffff16611c388361116e565b73ffffffffffffffffffffffffffffffffffffffff167f8c5be1e5ebec7d5bd14f71427d1e84f3dd0314c0f7b2291e5b200ac8c7c3b92560405160405180910390a45050565b600080611c8a8361116e565b90508073ffffffffffffffffffffffffffffffffffffffff168473ffffffffffffffffffffffffffffffffffffffff161480611ccc5750611ccb81856118ef565b5b80611d0a57508373ffffffffffffffffffffffffffffffffffffffff16611cf284610937565b73ffffffffffffffffffffffffffffffffffffffff16145b91505092915050565b8273ffffffffffffffffffffffffffffffffffffffff16611d338261116e565b73ffffffffffffffffffffffffffffffffffffffff1614611d89576040517f08c379a0000000000000000000000000000000000000000000000000000000008152600401611d80906142a7565b60405180910390fd5b600073ffffffffffffffffffffffffffffffffffffffff168273ffffffffffffffffffffffffffffffffffffffff1603611df8576040517f08c379a0000000000000000000000000000000000000000000000000000000008152600401611def90614339565b60405180910390fd5b611e0383838361258f565b611e0e600082611bc5565b6001600360008573ffffffffffffffffffffffffffffffffffffffff1673ffffffffffffffffffffffffffffffffffffffff1681526020019081526020016000206000828254611e5e9190613abb565b925050819055506001600360008473ffffffffffffffffffffffffffffffffffffffff1673ffffffffffffffffffffffffffffffffffffffff1681526020019081526020016000206000828254611eb59190613731565b92505081905550816002600083815260200190815260200160002060006101000a81548173ffffffffffffffffffffffffffffffffffffffff021916908373ffffffffffffffffffffffffffffffffffffffff160217905550808273ffffffffffffffffffffffffffffffffffffffff168473ffffffffffffffffffffffffffffffffffffffff167fddf252ad1be2c89b69c2b068fc378daa952ba7f163c4a11628f55a4df523b3ef60405160405180910390a4611f748383836126a1565b505050565b6001816000016000828254019250508190555050565b600081600001549050919050565b611fb78282604051806020016040528060008152506126a6565b5050565b611fc3611bbd565b73ffffffffffffffffffffffffffffffffffffffff16611fe1611689565b73ffffffffffffffffffffffffffffffffffffffff1614612037576040517f08c379a000000000000000000000000000000000000000000000000000000000815260040161202e906143a5565b60405180910390fd5b565b6000600a60009054906101000a900473ffffffffffffffffffffffffffffffffffffffff16905081600a60006101000a81548173ffffffffffffffffffffffffffffffffffffffff021916908373ffffffffffffffffffffffffffffffffffffffff1602179055508173ffffffffffffffffffffffffffffffffffffffff168173ffffffffffffffffffffffffffffffffffffffff167f8be0079c531659141344cd1fd0a4f28419497f9722a3daafe3b4186f6b6457e060405160405180910390a35050565b8173ffffffffffffffffffffffffffffffffffffffff168373ffffffffffffffffffffffffffffffffffffffff160361216d576040517f08c379a000000000000000000000000000000000000000000000000000000000815260040161216490614411565b60405180910390fd5b80600560008573ffffffffffffffffffffffffffffffffffffffff1673ffffffffffffffffffffffffffffffffffffffff16815260200190815260200160002060008473ffffffffffffffffffffffffffffffffffffffff1673ffffffffffffffffffffffffffffffffffffffff16815260200190815260200160002060006101000a81548160ff0219169083151502179055508173ffffffffffffffffffffffffffffffffffffffff168373ffffffffffffffffffffffffffffffffffffffff167f17307eab39ab6107e8899845ad3d59bd9653f200f220920489ca2b5937696c318360405161225e9190612e66565b60405180910390a3505050565b612276848484611d13565b61228284848484612701565b6122c1576040517f08c379a00000000000000000000000000000000000000000000000000000000081526004016122b8906144a3565b60405180910390fd5b50505050565b6060600b80546122d690613794565b80601f016020809104026020016040519081016040528092919081815260200182805461230290613794565b801561234f5780601f106123245761010080835404028352916020019161234f565b820191906000526020600020905b81548152906001019060200180831161233257829003601f168201915b5050505050905090565b6060600082036123a0576040518060400160405280600181526020017f300000000000000000000000000000000000000000000000000000000000000081525090506124b4565b600082905060005b600082146123d25780806123bb90613fbb565b915050600a826123cb9190613ec9565b91506123a8565b60008167ffffffffffffffff8111156123ee576123ed6134d4565b5b6040519080825280601f01601f1916602001820160405280156124205781602001600182028036833780820191505090505b5090505b600085146124ad576001826124399190613abb565b9150600a8561244891906144c3565b60306124549190613731565b60f81b81838151811061246a57612469613f8c565b5b60200101907effffffffffffffffffffffffffffffffffffffffffffffffffffffffffffff1916908160001a905350600a856124a69190613ec9565b9450612424565b8093505050505b919050565b60007f01ffc9a7000000000000000000000000000000000000000000000000000000007bffffffffffffffffffffffffffffffffffffffffffffffffffffffff1916827bffffffffffffffffffffffffffffffffffffffffffffffffffffffff1916149050919050565b60008073ffffffffffffffffffffffffffffffffffffffff166002600084815260200190815260200160002060009054906101000a900473ffffffffffffffffffffffffffffffffffffffff1673ffffffffffffffffffffffffffffffffffffffff1614159050919050565b61259a838383612888565b600073ffffffffffffffffffffffffffffffffffffffff168373ffffffffffffffffffffffffffffffffffffffff16036125dc576125d78161288d565b61261b565b8173ffffffffffffffffffffffffffffffffffffffff168373ffffffffffffffffffffffffffffffffffffffff161461261a5761261983826128d6565b5b5b600073ffffffffffffffffffffffffffffffffffffffff168273ffffffffffffffffffffffffffffffffffffffff160361265d5761265881612a43565b61269c565b8273ffffffffffffffffffffffffffffffffffffffff168273ffffffffffffffffffffffffffffffffffffffff161461269b5761269a8282612b14565b5b5b505050565b505050565b6126b08383612b93565b6126bd6000848484612701565b6126fc576040517f08c379a00000000000000000000000000000000000000000000000000000000081526004016126f3906144a3565b60405180910390fd5b505050565b60006127228473ffffffffffffffffffffffffffffffffffffffff16612d6c565b1561287b578373ffffffffffffffffffffffffffffffffffffffff1663150b7a0261274b611bbd565b8786866040518563ffffffff1660e01b815260040161276d9493929190614549565b6020604051808303816000875af19250505080156127a957506040513d601f19601f820116820180604052508101906127a691906145aa565b60015b61282b573d80600081146127d9576040519150601f19603f3d011682016040523d82523d6000602084013e6127de565b606091505b506000815103612823576040517f08c379a000000000000000000000000000000000000000000000000000000000815260040161281a906144a3565b60405180910390fd5b805181602001fd5b63150b7a0260e01b7bffffffffffffffffffffffffffffffffffffffffffffffffffffffff1916817bffffffffffffffffffffffffffffffffffffffffffffffffffffffff191614915050612880565b600190505b949350505050565b505050565b6008805490506009600083815260200190815260200160002081905550600881908060018154018082558091505060019003906000526020600020016000909190919091505550565b600060016128e38461121f565b6128ed9190613abb565b90506000600760008481526020019081526020016000205490508181146129d2576000600660008673ffffffffffffffffffffffffffffffffffffffff1673ffffffffffffffffffffffffffffffffffffffff168152602001908152602001600020600084815260200190815260200160002054905080600660008773ffffffffffffffffffffffffffffffffffffffff1673ffffffffffffffffffffffffffffffffffffffff168152602001908152602001600020600084815260200190815260200160002081905550816007600083815260200190815260200160002081905550505b6007600084815260200190815260200160002060009055600660008573ffffffffffffffffffffffffffffffffffffffff1673ffffffffffffffffffffffffffffffffffffffff16815260200190815260200160002060008381526020019081526020016000206000905550505050565b60006001600880549050612a579190613abb565b9050600060096000848152602001908152602001600020549050600060088381548110612a8757612a86613f8c565b5b906000526020600020015490508060088381548110612aa957612aa8613f8c565b5b906000526020600020018190555081600960008381526020019081526020016000208190555060096000858152602001908152602001600020600090556008805480612af857612af76145d7565b5b6001900381819060005260206000200160009055905550505050565b6000612b1f8361121f565b905081600660008573ffffffffffffffffffffffffffffffffffffffff1673ffffffffffffffffffffffffffffffffffffffff168152602001908152602001600020600083815260200190815260200160002081905550806007600084815260200190815260200160002081905550505050565b600073ffffffffffffffffffffffffffffffffffffffff168273ffffffffffffffffffffffffffffffffffffffff1603612c02576040517f08c379a0000000000000000000000000000000000000000000000000000000008152600401612bf990614652565b60405180910390fd5b612c0b81612523565b15612c4b576040517f08c379a0000000000000000000000000000000000000000000000000000000008152600401612c42906146be565b60405180910390fd5b612c576000838361258f565b6001600360008473ffffffffffffffffffffffffffffffffffffffff1673ffffffffffffffffffffffffffffffffffffffff1681526020019081526020016000206000828254612ca79190613731565b92505081905550816002600083815260200190815260200160002060006101000a81548173ffffffffffffffffffffffffffffffffffffffff021916908373ffffffffffffffffffffffffffffffffffffffff160217905550808273ffffffffffffffffffffffffffffffffffffffff16600073ffffffffffffffffffffffffffffffffffffffff167fddf252ad1be2c89b69c2b068fc378daa952ba7f163c4a11628f55a4df523b3ef60405160405180910390a4612d68600083836126a1565b5050565b6000808273ffffffffffffffffffffffffffffffffffffffff163b119050919050565b604051806060016040528060008152602001600015158152602001600081525090565b6000604051905090565b600080fd5b600080fd5b60007fffffffff0000000000000000000000000000000000000000000000000000000082169050919050565b612dfb81612dc6565b8114612e0657600080fd5b50565b600081359050612e1881612df2565b92915050565b600060208284031215612e3457612e33612dbc565b5b6000612e4284828501612e09565b91505092915050565b60008115159050919050565b612e6081612e4b565b82525050565b6000602082019050612e7b6000830184612e57565b92915050565b600081519050919050565b600082825260208201905092915050565b60005b83811015612ebb578082015181840152602081019050612ea0565b60008484015250505050565b6000601f19601f8301169050919050565b6000612ee382612e81565b612eed8185612e8c565b9350612efd818560208601612e9d565b612f0681612ec7565b840191505092915050565b60006020820190508181036000830152612f2b8184612ed8565b905092915050565b6000819050919050565b612f4681612f33565b8114612f5157600080fd5b50565b600081359050612f6381612f3d565b92915050565b600060208284031215612f7f57612f7e612dbc565b5b6000612f8d84828501612f54565b91505092915050565b600073ffffffffffffffffffffffffffffffffffffffff82169050919050565b6000612fc182612f96565b9050919050565b612fd181612fb6565b82525050565b6000602082019050612fec6000830184612fc8565b92915050565b612ffb81612fb6565b811461300657600080fd5b50565b60008135905061301881612ff2565b92915050565b6000806040838503121561303557613034612dbc565b5b600061304385828601613009565b925050602061305485828601612f54565b9150509250929050565b61306781612e4b565b811461307257600080fd5b50565b6000813590506130848161305e565b92915050565b6000806000606084860312156130a3576130a2612dbc565b5b60006130b186828701613009565b93505060206130c286828701612f54565b92505060406130d386828701613075565b9150509250925092565b6130e681612f33565b82525050565b600060208201905061310160008301846130dd565b92915050565b6000806000606084860312156131205761311f612dbc565b5b600061312e86828701613009565b935050602061313f86828701613009565b925050604061315086828701612f54565b9150509250925092565b600080fd5b600080fd5b600080fd5b60008083601f84011261317f5761317e61315a565b5b8235905067ffffffffffffffff81111561319c5761319b61315f565b5b6020830191508360018202830111156131b8576131b7613164565b5b9250929050565b600080600080606085870312156131d9576131d8612dbc565b5b60006131e787828801612f54565b94505060206131f887828801612f54565b935050604085013567ffffffffffffffff81111561321957613218612dc1565b5b61322587828801613169565b925092505092959194509250565b60006020828403121561324957613248612dbc565b5b600061325784828501613009565b91505092915050565b600081519050919050565b600082825260208201905092915050565b6000819050602082019050919050565b61329581612f33565b82525050565b60006132a7838361328c565b60208301905092915050565b6000602082019050919050565b60006132cb82613260565b6132d5818561326b565b93506132e08361327c565b8060005b838110156133115781516132f8888261329b565b9750613303836132b3565b9250506001810190506132e4565b5085935050505092915050565b6000602082019050818103600083015261333881846132c0565b905092915050565b600060808201905061335560008301876130dd565b6133626020830186612e57565b61336f60408301856130dd565b61337c6060830184612fc8565b95945050505050565b600081519050919050565b600082825260208201905092915050565b6000819050602082019050919050565b6133ba81612fb6565b82525050565b60006133cc83836133b1565b60208301905092915050565b6000602082019050919050565b60006133f082613385565b6133fa8185613390565b9350613405836133a1565b8060005b8381101561343657815161341d88826133c0565b9750613428836133d8565b925050600181019050613409565b5085935050505092915050565b6000606082019050818103600083015261345d81866132c0565b9050818103602083015261347181856132c0565b9050818103604083015261348581846133e5565b9050949350505050565b600080604083850312156134a6576134a5612dbc565b5b60006134b485828601613009565b92505060206134c585828601613075565b9150509250929050565b600080fd5b7f4e487b7100000000000000000000000000000000000000000000000000000000600052604160045260246000fd5b61350c82612ec7565b810181811067ffffffffffffffff8211171561352b5761352a6134d4565b5b80604052505050565b600061353e612db2565b905061354a8282613503565b919050565b600067ffffffffffffffff82111561356a576135696134d4565b5b61357382612ec7565b9050602081019050919050565b82818337600083830152505050565b60006135a261359d8461354f565b613534565b9050828152602081018484840111156135be576135bd6134cf565b5b6135c9848285613580565b509392505050565b600082601f8301126135e6576135e561315a565b5b81356135f684826020860161358f565b91505092915050565b6000806000806080858703121561361957613618612dbc565b5b600061362787828801613009565b945050602061363887828801613009565b935050604061364987828801612f54565b925050606085013567ffffffffffffffff81111561366a57613669612dc1565b5b613676878288016135d1565b91505092959194509250565b6000806040838503121561369957613698612dbc565b5b60006136a785828601612f54565b92505060206136b885828601612f54565b9150509250929050565b600080604083850312156136d9576136d8612dbc565b5b60006136e785828601613009565b92505060206136f885828601613009565b9150509250929050565b7f4e487b7100000000000000000000000000000000000000000000000000000000600052601160045260246000fd5b600061373c82612f33565b915061374783612f33565b925082820190508082111561375f5761375e613702565b5b92915050565b7f4e487b7100000000000000000000000000000000000000000000000000000000600052602260045260246000fd5b600060028204905060018216806137ac57607f821691505b6020821081036137bf576137be613765565b5b50919050565b7f4552433732313a20617070726f76616c20746f2063757272656e74206f776e6560008201527f7200000000000000000000000000000000000000000000000000000000000000602082015250565b6000613821602183612e8c565b915061382c826137c5565b604082019050919050565b6000602082019050818103600083015261385081613814565b9050919050565b7f4552433732313a20617070726f76652063616c6c6572206973206e6f7420746f60008201527f6b656e206f776e6572206e6f7220617070726f76656420666f7220616c6c0000602082015250565b60006138b3603e83612e8c565b91506138be82613857565b604082019050919050565b600060208201905081810360008301526138e2816138a6565b9050919050565b7f43616e6e6f74207075726368617365206f6e652773206f776e20617373657400600082015250565b600061391f601f83612e8c565b915061392a826138e9565b602082019050919050565b6000602082019050818103600083015261394e81613912565b9050919050565b7f43616e6e6f74207472616e7366657220746f6b656e2e204e6f7420737566666960008201527f6369656e742066756e6400000000000000000000000000000000000000000000602082015250565b60006139b1602a83612e8c565b91506139bc82613955565b604082019050919050565b600060208201905081810360008301526139e0816139a4565b9050919050565b7f43616e6e6f74207472616e73666572206173736574206173206974206973206e60008201527f6f7420666f722073616c65000000000000000000000000000000000000000000602082015250565b6000613a43602b83612e8c565b9150613a4e826139e7565b604082019050919050565b60006020820190508181036000830152613a7281613a36565b9050919050565b6000613a8482612f33565b9150613a8f83612f33565b9250828202613a9d81612f33565b91508282048414831517613ab457613ab3613702565b5b5092915050565b6000613ac682612f33565b9150613ad183612f33565b9250828203905081811115613ae957613ae8613702565b5b92915050565b7f4552433732313a2063616c6c6572206973206e6f7420746f6b656e206f776e6560008201527f72206e6f7220617070726f766564000000000000000000000000000000000000602082015250565b6000613b4b602e83612e8c565b9150613b5682613aef565b604082019050919050565b60006020820190508181036000830152613b7a81613b3e565b9050919050565b600082905092915050565b60008190508160005260206000209050919050565b60006020601f8301049050919050565b600082821b905092915050565b600060088302613bee7fffffffffffffffffffffffffffffffffffffffffffffffffffffffffffffffff82613bb1565b613bf88683613bb1565b95508019841693508086168417925050509392505050565b6000819050919050565b6000613c35613c30613c2b84612f33565b613c10565b612f33565b9050919050565b6000819050919050565b613c4f83613c1a565b613c63613c5b82613c3c565b848454613bbe565b825550505050565b600090565b613c78613c6b565b613c83818484613c46565b505050565b5b81811015613ca757613c9c600082613c70565b600181019050613c89565b5050565b601f821115613cec57613cbd81613b8c565b613cc684613ba1565b81016020851015613cd5578190505b613ce9613ce185613ba1565b830182613c88565b50505b505050565b600082821c905092915050565b6000613d0f60001984600802613cf1565b1980831691505092915050565b6000613d288383613cfe565b9150826002028217905092915050565b613d428383613b81565b67ffffffffffffffff811115613d5b57613d5a6134d4565b5b613d658254613794565b613d70828285613cab565b6000601f831160018114613d9f5760008415613d8d578287013590505b613d978582613d1c565b865550613dff565b601f198416613dad86613b8c565b60005b82811015613dd557848901358255600182019150602085019450602081019050613db0565b86831015613df25784890135613dee601f891682613cfe565b8355505b6001600288020188555050505b50505050505050565b7f455243373231456e756d657261626c653a206f776e657220696e646578206f7560008201527f74206f6620626f756e6473000000000000000000000000000000000000000000602082015250565b6000613e64602b83612e8c565b9150613e6f82613e08565b604082019050919050565b60006020820190508181036000830152613e9381613e57565b9050919050565b7f4e487b7100000000000000000000000000000000000000000000000000000000600052601260045260246000fd5b6000613ed482612f33565b9150613edf83612f33565b925082613eef57613eee613e9a565b5b828204905092915050565b7f455243373231456e756d657261626c653a20676c6f62616c20696e646578206f60008201527f7574206f6620626f756e64730000000000000000000000000000000000000000602082015250565b6000613f56602c83612e8c565b9150613f6182613efa565b604082019050919050565b60006020820190508181036000830152613f8581613f49565b9050919050565b7f4e487b7100000000000000000000000000000000000000000000000000000000600052603260045260246000fd5b6000613fc682612f33565b91507fffffffffffffffffffffffffffffffffffffffffffffffffffffffffffffffff8203613ff857613ff7613702565b5b600182019050919050565b7f4552433732313a20696e76616c696420746f6b656e2049440000000000000000600082015250565b6000614039601883612e8c565b915061404482614003565b602082019050919050565b600060208201905081810360008301526140688161402c565b9050919050565b7f4552433732313a2061646472657373207a65726f206973206e6f74206120766160008201527f6c6964206f776e65720000000000000000000000000000000000000000000000602082015250565b60006140cb602983612e8c565b91506140d68261406f565b604082019050919050565b600060208201905081810360008301526140fa816140be565b9050919050565b60008151905061411081612ff2565b92915050565b60006020828403121561412c5761412b612dbc565b5b600061413a84828501614101565b91505092915050565b600081905092915050565b600061415982612e81565b6141638185614143565b9350614173818560208601612e9d565b80840191505092915050565b600061418b828561414e565b9150614197828461414e565b91508190509392505050565b7f4f776e61626c653a206e6577206f776e657220697320746865207a65726f206160008201527f6464726573730000000000000000000000000000000000000000000000000000602082015250565b60006141ff602683612e8c565b915061420a826141a3565b604082019050919050565b6000602082019050818103600083015261422e816141f2565b9050919050565b7f4552433732313a207472616e736665722066726f6d20696e636f72726563742060008201527f6f776e6572000000000000000000000000000000000000000000000000000000602082015250565b6000614291602583612e8c565b915061429c82614235565b604082019050919050565b600060208201905081810360008301526142c081614284565b9050919050565b7f4552433732313a207472616e7366657220746f20746865207a65726f2061646460008201527f7265737300000000000000000000000000000000000000000000000000000000602082015250565b6000614323602483612e8c565b915061432e826142c7565b604082019050919050565b6000602082019050818103600083015261435281614316565b9050919050565b7f4f776e61626c653a2063616c6c6572206973206e6f7420746865206f776e6572600082015250565b600061438f602083612e8c565b915061439a82614359565b602082019050919050565b600060208201905081810360008301526143be81614382565b9050919050565b7f4552433732313a20617070726f766520746f2063616c6c657200000000000000600082015250565b60006143fb601983612e8c565b9150614406826143c5565b602082019050919050565b6000602082019050818103600083015261442a816143ee565b9050919050565b7f4552433732313a207472616e7366657220746f206e6f6e20455243373231526560008201527f63656976657220696d706c656d656e7465720000000000000000000000000000602082015250565b600061448d603283612e8c565b915061449882614431565b604082019050919050565b600060208201905081810360008301526144bc81614480565b9050919050565b60006144ce82612f33565b91506144d983612f33565b9250826144e9576144e8613e9a565b5b828206905092915050565b600081519050919050565b600082825260208201905092915050565b600061451b826144f4565b61452581856144ff565b9350614535818560208601612e9d565b61453e81612ec7565b840191505092915050565b600060808201905061455e6000830187612fc8565b61456b6020830186612fc8565b61457860408301856130dd565b818103606083015261458a8184614510565b905095945050505050565b6000815190506145a481612df2565b92915050565b6000602082840312156145c0576145bf612dbc565b5b60006145ce84828501614595565b91505092915050565b7f4e487b7100000000000000000000000000000000000000000000000000000000600052603160045260246000fd5b7f4552433732313a206d696e7420746f20746865207a65726f2061646472657373600082015250565b600061463c602083612e8c565b915061464782614606565b602082019050919050565b6000602082019050818103600083015261466b8161462f565b9050919050565b7f4552433732313a20746f6b656e20616c7265616479206d696e74656400000000600082015250565b60006146a8601c83612e8c565b91506146b382614672565b602082019050919050565b600060208201905081810360008301526146d78161469b565b905091905056fea264697066735822122081473082d7cbe0ea830bcd4010e9a8432133a367195d36e114a6dc84f1e3bff964736f6c63430008110033",
  "immutableReferences": {},
  "source": "// SPDX-License-Identifier: MIT\npragma solidity ^0.8.0;\n\nimport \"@openzeppelin/contracts/token/ERC721/extensions/ERC721Enumerable.sol\";\nimport \"@openzeppelin/contracts/utils/Counters.sol\";\nimport \"@openzeppelin/contracts/access/Ownable.sol\";\nimport \"@openzeppelin/contracts/utils/math/SafeMath.sol\";\n\ncontract AssetToken is ERC721Enumerable,Ownable{\n    using Counters for Counters.Counter;\n    using SafeMath for uint256;\n\n    string private _baseuri;\n    Counters.Counter private _lasttokenID;\n    mapping(address=>uint256) _EscrowMoney; //This will hold account of everyone who has put the money in escrow.\n    mapping(uint256=>Asset) _AssetIdToAssetMap; //map asset sales data with asset id\n    uint256[] public registeredAssets; //array to keep track of all registered assets. Each element of this array contains assetid passed at the time of registration\n    mapping(uint256=>uint256) _TokenToAssetMap; //for each token holds the asset id it points to\n    \n    constructor() ERC721(\"ShareToWin\",\"STW\"){}\n\n    struct Asset{\n        uint256 currentSalePrice;\n        bool isAvailableForSale;\n        uint256 AssetTokenID;\n    }\n\n    //This function will mint a new NFT. For each AssetID that is passed from the rest api, there is a NFT, represented by the token id,\n    //that is associated.  \n    function registerAsset(uint256 assetID,uint256 salePrice,string calldata _uri) public returns(uint256 newTokenID) {\n        _lasttokenID.increment();\n        newTokenID=_lasttokenID.current();\n\n        _safeMint(msg.sender, newTokenID);\n        _baseuri=_uri;\n        \n        Asset memory newAsset;\n        newAsset.currentSalePrice=salePrice;\n        newAsset.isAvailableForSale=true;\n        newAsset.AssetTokenID=newTokenID;\n        \n        _AssetIdToAssetMap[assetID]=newAsset;\n        registeredAssets.push(assetID);\n        _TokenToAssetMap[newTokenID]=assetID;\n\n        emit AssetRegistered(newTokenID);\n        return newTokenID;\n    }\n\n    //This function is part of the smart contract for convenience. This information can also be queried from the dynamoDb. \n    function getAllRegisteredAsset() view public returns(uint256[] memory r){\n        return registeredAssets;\n    }\n\n    //For a given asset id, it will return asset last/current sale price,boolean to indicate if it is on sale, NFT id and the address of the current owner\n    function getAssetByID(uint256 assetID) view public returns(uint256,bool,uint256,address){\n        return (_AssetIdToAssetMap[assetID].currentSalePrice,_AssetIdToAssetMap[assetID].isAvailableForSale,_AssetIdToAssetMap[assetID].AssetTokenID,ownerOf(_AssetIdToAssetMap[assetID].AssetTokenID));\n    }\n\n    // Return the count of NFT token whose owner has indicated that they are willing to exchange these NFT.\n    function getAssetOnSaleCount() view public returns(uint256){\n        uint totalAssetonMarket;\n        for(uint i=0;i<registeredAssets.length;i++){\n            if(_AssetIdToAssetMap[registeredAssets[i]].isAvailableForSale==true){\n                totalAssetonMarket++;\n            }\n        }\n        return totalAssetonMarket;\n    }\n\n    //this function return all asset id ownerd by this account\n    function getAssetsOwnedByAccount(address tokenOwnerAddress) view public returns(uint256[] memory){\n        uint totalToken=balanceOf(tokenOwnerAddress);\n        uint256[] memory assetIDs=new uint256[](totalToken);\n\n        for(uint i=0;i<totalToken;i++){\n            uint256 accountNftTokenId=tokenOfOwnerByIndex(tokenOwnerAddress, i);\n            assetIDs[i]=_TokenToAssetMap[accountNftTokenId];\n        }\n        return assetIDs;\n    }\n\n    //this function will return all the asset that are on sale and the sale price at which they are in the market\n    function getAllAssetOnSale() view public returns(uint256[] memory,uint256[] memory,address[] memory){\n        uint saleCounter=getAssetOnSaleCount();\n        uint256[] memory assetIDs=new uint256[](saleCounter);\n        uint256[] memory assetPrice=new uint256[](saleCounter);\n        address[] memory assetOwnerAddress=new address[](saleCounter);\n        uint counter=0;\n        for(uint i=0;i<registeredAssets.length;i++){      \n            if(_AssetIdToAssetMap[registeredAssets[i]].isAvailableForSale==true){\n                assetIDs[counter]=registeredAssets[i];\n                assetPrice[counter]=_AssetIdToAssetMap[registeredAssets[i]].currentSalePrice;\n                assetOwnerAddress[counter]=this.ownerOf(_AssetIdToAssetMap[registeredAssets[i]].AssetTokenID);\n                counter++;\n            }\n        }\n        return (assetIDs,assetPrice,assetOwnerAddress);\n    }\n\n    //return the escrow amount in Ether that the contract holds for the given address\n    function getAccountEscrowMoney(address escrowAccount) view public returns(uint256 moneyInEscrow){\n        return _EscrowMoney[escrowAccount]/1000000000000000000;\n    }\n\n    //list the NFT to be available for sale\n    function putAssetOnMarket(uint256 salePrice,uint256 assetID) public{\n        _AssetIdToAssetMap[assetID].currentSalePrice=salePrice;\n        _AssetIdToAssetMap[assetID].isAvailableForSale=true;\n    }\n\n    //transfer the NFT from one address to another and adjust the escrow balance\n    function transferAsset(address _to, uint256 assetID,bool withEscrow) public {\n        uint256 assetTokenID=_AssetIdToAssetMap[assetID].AssetTokenID;\n        uint256 ethSalesAmount=_AssetIdToAssetMap[assetID].currentSalePrice;\n        address currentOwner=ownerOf(assetTokenID);\n\n        //owner can't transfer his own asset\n        if(_to==currentOwner) {\n            revert(\"Cannot purchase one's own asset\");\n        }\n        require(ethSalesAmount<=_EscrowMoney[_to],\"Cannot transfer token. Not sufficient fund\");\n\n        //cannot transfer asset if it is not for sale\n        require(_AssetIdToAssetMap[assetID].isAvailableForSale==true,\"Cannot transfer asset as it is not for sale\");\n\n        //first transfer the token and then send ether to seller and and adjust the escrow balance\n        safeTransferFrom(currentOwner, _to, assetTokenID);\n        if(withEscrow==true){\n            payable(currentOwner).transfer(ethSalesAmount * 1000000000000000000);\n            _EscrowMoney[_to] = _EscrowMoney[_to]-(ethSalesAmount * 1000000000000000000);\n        }\n        //approve(this.owner(), assetTokenID);\n        \n        //remove the asset from market\n        _AssetIdToAssetMap[assetID].isAvailableForSale=false;\n    }\n    //this function should return the metadata base uri\n    function _baseURI() internal view virtual override returns (string memory) {\n        return _baseuri;\n    }\n\n    receive() external payable\n    {\n        uint256 amount = msg.value;\n        _EscrowMoney[msg.sender] = _EscrowMoney[msg.sender].add(amount);\n    }\n\n    event AssetRegistered(uint256 tokenId);\n\n    //event AssetTransfered(address from, address to, uint256 tokenid);\n}",
  "sourcePath": "C:\\nft-marketplace-main\\ShareToWinContract\\contracts\\AssetToken.sol",
  "compiler": {
    "name": "solc",
    "version": "0.8.17+commit.8df45f5f.Emscripten.clang"
  },
  "schemaVersion": "3.4.10",
  "updatedAt": "2022-11-12T22:43:15.770Z",
  "networkType": "ethereum",
  "devdoc": {
    "kind": "dev",
    "methods": {
      "approve(address,uint256)": {
        "details": "See {IERC721-approve}."
      },
      "balanceOf(address)": {
        "details": "See {IERC721-balanceOf}."
      },
      "getApproved(uint256)": {
        "details": "See {IERC721-getApproved}."
      },
      "isApprovedForAll(address,address)": {
        "details": "See {IERC721-isApprovedForAll}."
      },
      "name()": {
        "details": "See {IERC721Metadata-name}."
      },
      "owner()": {
        "details": "Returns the address of the current owner."
      },
      "ownerOf(uint256)": {
        "details": "See {IERC721-ownerOf}."
      },
      "renounceOwnership()": {
        "details": "Leaves the contract without owner. It will not be possible to call `onlyOwner` functions anymore. Can only be called by the current owner. NOTE: Renouncing ownership will leave the contract without an owner, thereby removing any functionality that is only available to the owner."
      },
      "safeTransferFrom(address,address,uint256)": {
        "details": "See {IERC721-safeTransferFrom}."
      },
      "safeTransferFrom(address,address,uint256,bytes)": {
        "details": "See {IERC721-safeTransferFrom}."
      },
      "setApprovalForAll(address,bool)": {
        "details": "See {IERC721-setApprovalForAll}."
      },
      "supportsInterface(bytes4)": {
        "details": "See {IERC165-supportsInterface}."
      },
      "symbol()": {
        "details": "See {IERC721Metadata-symbol}."
      },
      "tokenByIndex(uint256)": {
        "details": "See {IERC721Enumerable-tokenByIndex}."
      },
      "tokenOfOwnerByIndex(address,uint256)": {
        "details": "See {IERC721Enumerable-tokenOfOwnerByIndex}."
      },
      "tokenURI(uint256)": {
        "details": "See {IERC721Metadata-tokenURI}."
      },
      "totalSupply()": {
        "details": "See {IERC721Enumerable-totalSupply}."
      },
      "transferFrom(address,address,uint256)": {
        "details": "See {IERC721-transferFrom}."
      },
      "transferOwnership(address)": {
        "details": "Transfers ownership of the contract to a new account (`newOwner`). Can only be called by the current owner."
      }
    },
    "version": 1
  },
  "userdoc": {
    "kind": "user",
    "methods": {},
    "version": 1
  }
}